{
  "_format": "hh-sol-artifact-1",
  "contractName": "DecentraDAO",
  "sourceName": "contracts/DecentraDAO.sol",
  "abi": [
    {
      "inputs": [
        {
          "internalType": "string",
          "name": "name",
          "type": "string"
        },
        {
          "internalType": "uint256",
          "name": "voteTime",
          "type": "uint256"
        },
        {
          "internalType": "uint256",
          "name": "quorum",
          "type": "uint256"
        },
        {
          "internalType": "address[]",
          "name": "members",
          "type": "address[]"
        }
      ],
      "name": "createDAO",
      "outputs": [],
      "stateMutability": "nonpayable",
      "type": "function"
    },
    {
      "inputs": [
        {
          "internalType": "uint256",
          "name": "id",
          "type": "uint256"
        }
      ],
      "name": "getDAO",
      "outputs": [
        {
          "components": [
            {
              "internalType": "uint256",
              "name": "id",
              "type": "uint256"
            },
            {
              "internalType": "string",
              "name": "name",
              "type": "string"
            },
            {
              "internalType": "address",
              "name": "contract_address",
              "type": "address"
            },
            {
              "internalType": "uint256",
              "name": "created_at",
              "type": "uint256"
            },
            {
              "internalType": "address",
              "name": "creator",
              "type": "address"
            }
          ],
          "internalType": "struct DecentraDAO.Dao",
          "name": "",
          "type": "tuple"
        }
      ],
      "stateMutability": "view",
      "type": "function"
    },
    {
      "inputs": [
        {
          "internalType": "uint256",
          "name": "id",
          "type": "uint256"
        }
      ],
      "name": "getDAODetails",
      "outputs": [
        {
          "components": [
            {
              "internalType": "string",
              "name": "name",
              "type": "string"
            },
            {
              "internalType": "uint256",
              "name": "totalMembers",
              "type": "uint256"
            },
            {
              "internalType": "uint256",
              "name": "voteTime",
              "type": "uint256"
            },
            {
              "internalType": "uint256",
              "name": "quorum",
              "type": "uint256"
            },
            {
              "internalType": "uint256",
              "name": "balance",
              "type": "uint256"
            },
            {
              "internalType": "address",
              "name": "contract_address",
              "type": "address"
            }
          ],
          "internalType": "struct DecentraDAO.DAODetails",
          "name": "",
          "type": "tuple"
        }
      ],
      "stateMutability": "view",
      "type": "function"
    },
    {
      "inputs": [],
      "name": "getDAOs",
      "outputs": [
        {
          "components": [
            {
              "internalType": "uint256",
              "name": "id",
              "type": "uint256"
            },
            {
              "internalType": "string",
              "name": "name",
              "type": "string"
            },
            {
              "internalType": "address",
              "name": "contract_address",
              "type": "address"
            },
            {
              "internalType": "uint256",
              "name": "created_at",
              "type": "uint256"
            },
            {
              "internalType": "address",
              "name": "creator",
              "type": "address"
            }
          ],
          "internalType": "struct DecentraDAO.Dao[]",
          "name": "",
          "type": "tuple[]"
        }
      ],
      "stateMutability": "view",
      "type": "function"
    }
  ],
  "bytecode": "0x608060405234801561001057600080fd5b50615f88806100206000396000f3fe60806040523480156200001157600080fd5b5060043610620000525760003560e01c806303555c991462000057578063415cc7dd14620000775780635a29426c1462000099578063c1c6a5b714620000cf575b600080fd5b6200007560048036038101906200006f919062000d34565b62000105565b005b6200008162000295565b60405162000090919062000fe9565b60405180910390f35b620000b76004803603810190620000b191906200100d565b62000450565b604051620000c69190620010bf565b60405180910390f35b620000ed6004803603810190620000e791906200100d565b620005eb565b604051620000fc919062001178565b60405180910390f35b6000828433846040516200011990620008de565b6200012894939291906200127b565b604051809103906000f08015801562000145573d6000803e3d6000fd5b50905060006040518060a0016040528060008054905081526020018781526020018373ffffffffffffffffffffffffffffffffffffffff1681526020014281526020013373ffffffffffffffffffffffffffffffffffffffff168152509080600181540180825580915050600190039060005260206000209060050201600090919091909150600082015181600001556020820151816001019080519060200190620001f3929190620008ec565b5060408201518160020160006101000a81548173ffffffffffffffffffffffffffffffffffffffff021916908373ffffffffffffffffffffffffffffffffffffffff1602179055506060820151816003015560808201518160040160006101000a81548173ffffffffffffffffffffffffffffffffffffffff021916908373ffffffffffffffffffffffffffffffffffffffff16021790555050505050505050565b60606000805480602002602001604051908101604052809291908181526020016000905b828210156200044757838290600052602060002090600502016040518060a001604052908160008201548152602001600182018054620002f990620012fe565b80601f01602080910402602001604051908101604052809291908181526020018280546200032790620012fe565b8015620003785780601f106200034c5761010080835404028352916020019162000378565b820191906000526020600020905b8154815290600101906020018083116200035a57829003601f168201915b505050505081526020016002820160009054906101000a900473ffffffffffffffffffffffffffffffffffffffff1673ffffffffffffffffffffffffffffffffffffffff1673ffffffffffffffffffffffffffffffffffffffff168152602001600382015481526020016004820160009054906101000a900473ffffffffffffffffffffffffffffffffffffffff1673ffffffffffffffffffffffffffffffffffffffff1673ffffffffffffffffffffffffffffffffffffffff168152505081526020019060010190620002b9565b50505050905090565b6200045a6200097d565b6000828154811062000471576200047062001334565b5b90600052602060002090600502016040518060a001604052908160008201548152602001600182018054620004a690620012fe565b80601f0160208091040260200160405190810160405280929190818152602001828054620004d490620012fe565b8015620005255780601f10620004f95761010080835404028352916020019162000525565b820191906000526020600020905b8154815290600101906020018083116200050757829003601f168201915b505050505081526020016002820160009054906101000a900473ffffffffffffffffffffffffffffffffffffffff1673ffffffffffffffffffffffffffffffffffffffff1673ffffffffffffffffffffffffffffffffffffffff168152602001600382015481526020016004820160009054906101000a900473ffffffffffffffffffffffffffffffffffffffff1673ffffffffffffffffffffffffffffffffffffffff1673ffffffffffffffffffffffffffffffffffffffff16815250509050919050565b620005f5620009d8565b60008083815481106200060d576200060c62001334565b5b906000526020600020906005020160020160009054906101000a900473ffffffffffffffffffffffffffffffffffffffff1690506040518060c001604052806000858154811062000663576200066262001334565b5b906000526020600020906005020160010180546200068190620012fe565b80601f0160208091040260200160405190810160405280929190818152602001828054620006af90620012fe565b8015620007005780601f10620006d45761010080835404028352916020019162000700565b820191906000526020600020905b815481529060010190602001808311620006e257829003601f168201915b505050505081526020018273ffffffffffffffffffffffffffffffffffffffff166376e925596040518163ffffffff1660e01b815260040160206040518083038186803b1580156200075157600080fd5b505afa15801562000766573d6000803e3d6000fd5b505050506040513d601f19601f820116820180604052508101906200078c91906200137a565b81526020018273ffffffffffffffffffffffffffffffffffffffff1663bcf93dd66040518163ffffffff1660e01b815260040160206040518083038186803b158015620007d857600080fd5b505afa158015620007ed573d6000803e3d6000fd5b505050506040513d601f19601f820116820180604052508101906200081391906200137a565b81526020018273ffffffffffffffffffffffffffffffffffffffff16631703a0186040518163ffffffff1660e01b815260040160206040518083038186803b1580156200085f57600080fd5b505afa15801562000874573d6000803e3d6000fd5b505050506040513d601f19601f820116820180604052508101906200089a91906200137a565b81526020018273ffffffffffffffffffffffffffffffffffffffff163181526020018273ffffffffffffffffffffffffffffffffffffffff16815250915050919050565b614ba680620013ad83390190565b828054620008fa90620012fe565b90600052602060002090601f0160209004810192826200091e57600085556200096a565b82601f106200093957805160ff19168380011785556200096a565b828001600101855582156200096a579182015b82811115620009695782518255916020019190600101906200094c565b5b50905062000979919062000a24565b5090565b6040518060a001604052806000815260200160608152602001600073ffffffffffffffffffffffffffffffffffffffff16815260200160008152602001600073ffffffffffffffffffffffffffffffffffffffff1681525090565b6040518060c001604052806060815260200160008152602001600081526020016000815260200160008152602001600073ffffffffffffffffffffffffffffffffffffffff1681525090565b5b8082111562000a3f57600081600090555060010162000a25565b5090565b6000604051905090565b600080fd5b600080fd5b600080fd5b600080fd5b6000601f19601f8301169050919050565b7f4e487b7100000000000000000000000000000000000000000000000000000000600052604160045260246000fd5b62000aac8262000a61565b810181811067ffffffffffffffff8211171562000ace5762000acd62000a72565b5b80604052505050565b600062000ae362000a43565b905062000af1828262000aa1565b919050565b600067ffffffffffffffff82111562000b145762000b1362000a72565b5b62000b1f8262000a61565b9050602081019050919050565b82818337600083830152505050565b600062000b5262000b4c8462000af6565b62000ad7565b90508281526020810184848401111562000b715762000b7062000a5c565b5b62000b7e84828562000b2c565b509392505050565b600082601f83011262000b9e5762000b9d62000a57565b5b813562000bb084826020860162000b3b565b91505092915050565b6000819050919050565b62000bce8162000bb9565b811462000bda57600080fd5b50565b60008135905062000bee8162000bc3565b92915050565b600067ffffffffffffffff82111562000c125762000c1162000a72565b5b602082029050602081019050919050565b600080fd5b600073ffffffffffffffffffffffffffffffffffffffff82169050919050565b600062000c558262000c28565b9050919050565b62000c678162000c48565b811462000c7357600080fd5b50565b60008135905062000c878162000c5c565b92915050565b600062000ca462000c9e8462000bf4565b62000ad7565b9050808382526020820190506020840283018581111562000cca5762000cc962000c23565b5b835b8181101562000cf7578062000ce2888262000c76565b84526020840193505060208101905062000ccc565b5050509392505050565b600082601f83011262000d195762000d1862000a57565b5b813562000d2b84826020860162000c8d565b91505092915050565b6000806000806080858703121562000d515762000d5062000a4d565b5b600085013567ffffffffffffffff81111562000d725762000d7162000a52565b5b62000d808782880162000b86565b945050602062000d938782880162000bdd565b935050604062000da68782880162000bdd565b925050606085013567ffffffffffffffff81111562000dca5762000dc962000a52565b5b62000dd88782880162000d01565b91505092959194509250565b600081519050919050565b600082825260208201905092915050565b6000819050602082019050919050565b62000e1b8162000bb9565b82525050565b600081519050919050565b600082825260208201905092915050565b60005b8381101562000e5d57808201518184015260208101905062000e40565b8381111562000e6d576000848401525b50505050565b600062000e808262000e21565b62000e8c818562000e2c565b935062000e9e81856020860162000e3d565b62000ea98162000a61565b840191505092915050565b62000ebf8162000c48565b82525050565b600060a08301600083015162000edf600086018262000e10565b506020830151848203602086015262000ef9828262000e73565b915050604083015162000f10604086018262000eb4565b50606083015162000f25606086018262000e10565b50608083015162000f3a608086018262000eb4565b508091505092915050565b600062000f53838362000ec5565b905092915050565b6000602082019050919050565b600062000f758262000de4565b62000f81818562000def565b93508360208202850162000f958562000e00565b8060005b8581101562000fd7578484038952815162000fb5858262000f45565b945062000fc28362000f5b565b925060208a0199505060018101905062000f99565b50829750879550505050505092915050565b6000602082019050818103600083015262001005818462000f68565b905092915050565b60006020828403121562001026576200102562000a4d565b5b6000620010368482850162000bdd565b91505092915050565b600060a08301600083015162001059600086018262000e10565b506020830151848203602086015262001073828262000e73565b91505060408301516200108a604086018262000eb4565b5060608301516200109f606086018262000e10565b506080830151620010b4608086018262000eb4565b508091505092915050565b60006020820190508181036000830152620010db81846200103f565b905092915050565b600060c083016000830151848203600086015262001102828262000e73565b915050602083015162001119602086018262000e10565b5060408301516200112e604086018262000e10565b50606083015162001143606086018262000e10565b50608083015162001158608086018262000e10565b5060a08301516200116d60a086018262000eb4565b508091505092915050565b60006020820190508181036000830152620011948184620010e3565b905092915050565b620011a78162000bb9565b82525050565b620011b88162000c48565b82525050565b600081519050919050565b600082825260208201905092915050565b6000819050602082019050919050565b6000620011f8838362000eb4565b60208301905092915050565b6000602082019050919050565b60006200121e82620011be565b6200122a8185620011c9565b93506200123783620011da565b8060005b838110156200126e578151620012528882620011ea565b97506200125f8362001204565b9250506001810190506200123b565b5085935050505092915050565b60006080820190506200129260008301876200119c565b620012a160208301866200119c565b620012b06040830185620011ad565b8181036060830152620012c4818462001211565b905095945050505050565b7f4e487b7100000000000000000000000000000000000000000000000000000000600052602260045260246000fd5b600060028204905060018216806200131757607f821691505b602082108114156200132e576200132d620012cf565b5b50919050565b7f4e487b7100000000000000000000000000000000000000000000000000000000600052603260045260246000fd5b600081519050620013748162000bc3565b92915050565b60006020828403121562001393576200139262000a4d565b5b6000620013a38482850162001363565b9150509291505056fe60806040523480156200001157600080fd5b5060405162004ba638038062004ba6833981810160405281019062000037919062000708565b6040518060400160405280600b81526020017f446563656e74726144414f0000000000000000000000000000000000000000008152506040518060400160405280600481526020017f4444414f000000000000000000000000000000000000000000000000000000008152508160039080519060200190620000bb9291906200042f565b508060049080519060200190620000d49291906200042f565b505050620000f7620000eb620001e060201b60201c565b620001e860201b60201c565b836006819055508260078190555062000142826200011a620002ae60201b60201c565b600a62000128919062000929565b60016200013691906200097a565b620002b760201b60201c565b60018151620001529190620009db565b60098190555060005b8151811015620001d557620001bf8282815181106200017f576200017e62000a38565b5b602002602001015162000197620002ae60201b60201c565b600a620001a5919062000929565b6001620001b391906200097a565b620002b760201b60201c565b8080620001cc9062000a67565b9150506200015b565b505050505062000bcb565b600033905090565b6000600560009054906101000a900473ffffffffffffffffffffffffffffffffffffffff16905081600560006101000a81548173ffffffffffffffffffffffffffffffffffffffff021916908373ffffffffffffffffffffffffffffffffffffffff1602179055508173ffffffffffffffffffffffffffffffffffffffff168173ffffffffffffffffffffffffffffffffffffffff167f8be0079c531659141344cd1fd0a4f28419497f9722a3daafe3b4186f6b6457e060405160405180910390a35050565b60006012905090565b600073ffffffffffffffffffffffffffffffffffffffff168273ffffffffffffffffffffffffffffffffffffffff1614156200032a576040517f08c379a0000000000000000000000000000000000000000000000000000000008152600401620003219062000b16565b60405180910390fd5b6200033e600083836200042560201b60201c565b8060026000828254620003529190620009db565b92505081905550806000808473ffffffffffffffffffffffffffffffffffffffff1673ffffffffffffffffffffffffffffffffffffffff168152602001908152602001600020600082825401925050819055508173ffffffffffffffffffffffffffffffffffffffff16600073ffffffffffffffffffffffffffffffffffffffff167fddf252ad1be2c89b69c2b068fc378daa952ba7f163c4a11628f55a4df523b3ef8360405162000405919062000b49565b60405180910390a362000421600083836200042a60201b60201c565b5050565b505050565b505050565b8280546200043d9062000b95565b90600052602060002090601f016020900481019282620004615760008555620004ad565b82601f106200047c57805160ff1916838001178555620004ad565b82800160010185558215620004ad579182015b82811115620004ac5782518255916020019190600101906200048f565b5b509050620004bc9190620004c0565b5090565b5b80821115620004db576000816000905550600101620004c1565b5090565b6000604051905090565b600080fd5b600080fd5b6000819050919050565b6200050881620004f3565b81146200051457600080fd5b50565b6000815190506200052881620004fd565b92915050565b600073ffffffffffffffffffffffffffffffffffffffff82169050919050565b60006200055b826200052e565b9050919050565b6200056d816200054e565b81146200057957600080fd5b50565b6000815190506200058d8162000562565b92915050565b600080fd5b6000601f19601f8301169050919050565b7f4e487b7100000000000000000000000000000000000000000000000000000000600052604160045260246000fd5b620005e38262000598565b810181811067ffffffffffffffff82111715620006055762000604620005a9565b5b80604052505050565b60006200061a620004df565b9050620006288282620005d8565b919050565b600067ffffffffffffffff8211156200064b576200064a620005a9565b5b602082029050602081019050919050565b600080fd5b60006200067862000672846200062d565b6200060e565b905080838252602082019050602084028301858111156200069e576200069d6200065c565b5b835b81811015620006cb5780620006b688826200057c565b845260208401935050602081019050620006a0565b5050509392505050565b600082601f830112620006ed57620006ec62000593565b5b8151620006ff84826020860162000661565b91505092915050565b60008060008060808587031215620007255762000724620004e9565b5b6000620007358782880162000517565b9450506020620007488782880162000517565b93505060406200075b878288016200057c565b925050606085015167ffffffffffffffff8111156200077f576200077e620004ee565b5b6200078d87828801620006d5565b91505092959194509250565b7f4e487b7100000000000000000000000000000000000000000000000000000000600052601160045260246000fd5b60008160011c9050919050565b6000808291508390505b60018511156200082757808604811115620007ff57620007fe62000799565b5b60018516156200080f5780820291505b80810290506200081f85620007c8565b9450620007df565b94509492505050565b60008262000842576001905062000915565b8162000852576000905062000915565b81600181146200086b57600281146200087657620008ac565b600191505062000915565b60ff8411156200088b576200088a62000799565b5b8360020a915084821115620008a557620008a462000799565b5b5062000915565b5060208310610133831016604e8410600b8410161715620008e65782820a905083811115620008e057620008df62000799565b5b62000915565b620008f58484846001620007d5565b925090508184048111156200090f576200090e62000799565b5b81810290505b9392505050565b600060ff82169050919050565b60006200093682620004f3565b915062000943836200091c565b9250620009727fffffffffffffffffffffffffffffffffffffffffffffffffffffffffffffffff848462000830565b905092915050565b60006200098782620004f3565b91506200099483620004f3565b9250817fffffffffffffffffffffffffffffffffffffffffffffffffffffffffffffffff0483118215151615620009d057620009cf62000799565b5b828202905092915050565b6000620009e882620004f3565b9150620009f583620004f3565b9250827fffffffffffffffffffffffffffffffffffffffffffffffffffffffffffffffff0382111562000a2d5762000a2c62000799565b5b828201905092915050565b7f4e487b7100000000000000000000000000000000000000000000000000000000600052603260045260246000fd5b600062000a7482620004f3565b91507fffffffffffffffffffffffffffffffffffffffffffffffffffffffffffffffff82141562000aaa5762000aa962000799565b5b600182019050919050565b600082825260208201905092915050565b7f45524332303a206d696e7420746f20746865207a65726f206164647265737300600082015250565b600062000afe601f8362000ab5565b915062000b0b8262000ac6565b602082019050919050565b6000602082019050818103600083015262000b318162000aef565b9050919050565b62000b4381620004f3565b82525050565b600060208201905062000b60600083018462000b38565b92915050565b7f4e487b7100000000000000000000000000000000000000000000000000000000600052602260045260246000fd5b6000600282049050600182168062000bae57607f821691505b6020821081141562000bc55762000bc462000b66565b5b50919050565b613fcb8062000bdb6000396000f3fe6080604052600436106101bb5760003560e01c806376e92559116100ec578063a9059cbb1161008a578063d46f96ed11610064578063d46f96ed1461063e578063dd62ed3e1461067b578063ed88c68e146106b8578063f2fde38b146106c2576101c2565b8063a9059cbb14610599578063bcf93dd6146105d6578063c7f758a814610601576101c2565b80638da5cb5b116100c65780638da5cb5b146104c957806395d89b41146104f4578063a230c5241461051f578063a457c2d71461055c576101c2565b806376e925591461044a57806379cc679014610475578063809dab6a1461049e576101c2565b8063313ce5671161015957806362564c481161013357806362564c48146103a257806370a08231146103cd578063715018a61461040a578063752d74d114610421576101c2565b8063313ce56714610311578063395093511461033c57806342966c6814610379576101c2565b80630d61b519116101955780630d61b519146102555780631703a0181461027e57806318160ddd146102a957806323b872dd146102d4576101c2565b80630121b93f146101c457806306fdde03146101ed578063095ea7b314610218576101c2565b366101c257005b005b3480156101d057600080fd5b506101eb60048036038101906101e69190612896565b6106eb565b005b3480156101f957600080fd5b506102026108e3565b60405161020f919061295c565b60405180910390f35b34801561022457600080fd5b5061023f600480360381019061023a91906129dc565b610975565b60405161024c9190612a37565b60405180910390f35b34801561026157600080fd5b5061027c60048036038101906102779190612896565b610998565b005b34801561028a57600080fd5b50610293611069565b6040516102a09190612a61565b60405180910390f35b3480156102b557600080fd5b506102be61106f565b6040516102cb9190612a61565b60405180910390f35b3480156102e057600080fd5b506102fb60048036038101906102f69190612a7c565b611079565b6040516103089190612a37565b60405180910390f35b34801561031d57600080fd5b506103266110a8565b6040516103339190612aeb565b60405180910390f35b34801561034857600080fd5b50610363600480360381019061035e91906129dc565b6110b1565b6040516103709190612a37565b60405180910390f35b34801561038557600080fd5b506103a0600480360381019061039b9190612896565b6110e8565b005b3480156103ae57600080fd5b506103b76110fc565b6040516103c49190612d12565b60405180910390f35b3480156103d957600080fd5b506103f460048036038101906103ef9190612d34565b6113ab565b6040516104019190612a61565b60405180910390f35b34801561041657600080fd5b5061041f6113f3565b005b34801561042d57600080fd5b5061044860048036038101906104439190612e96565b611407565b005b34801561045657600080fd5b5061045f611661565b60405161046c9190612a61565b60405180910390f35b34801561048157600080fd5b5061049c600480360381019061049791906129dc565b611667565b005b3480156104aa57600080fd5b506104b3611687565b6040516104c09190612a61565b60405180910390f35b3480156104d557600080fd5b506104de61169c565b6040516104eb9190612f74565b60405180910390f35b34801561050057600080fd5b506105096116c6565b604051610516919061295c565b60405180910390f35b34801561052b57600080fd5b5061054660048036038101906105419190612d34565b611758565b6040516105539190612a37565b60405180910390f35b34801561056857600080fd5b50610583600480360381019061057e91906129dc565b61178c565b6040516105909190612a37565b60405180910390f35b3480156105a557600080fd5b506105c060048036038101906105bb91906129dc565b611803565b6040516105cd9190612a37565b60405180910390f35b3480156105e257600080fd5b506105eb611826565b6040516105f89190612a61565b60405180910390f35b34801561060d57600080fd5b5061062860048036038101906106239190612896565b61182c565b6040516106359190613062565b60405180910390f35b34801561064a57600080fd5b50610665600480360381019061066091906129dc565b611ab8565b6040516106729190612a37565b60405180910390f35b34801561068757600080fd5b506106a2600480360381019061069d9190613084565b611baf565b6040516106af9190612a61565b60405180910390f35b6106c0611c36565b005b3480156106ce57600080fd5b506106e960048036038101906106e49190612d34565b611c38565b005b6106f36110a8565b600a6106ff9190613226565b600161070b9190613271565b610714336113ab565b1015610755576040517f08c379a000000000000000000000000000000000000000000000000000000000815260040161074c90613317565b60405180910390fd5b600a80549050811061079c576040517f08c379a000000000000000000000000000000000000000000000000000000000815260040161079390613383565b60405180910390fd5b600b60003373ffffffffffffffffffffffffffffffffffffffff1673ffffffffffffffffffffffffffffffffffffffff168152602001908152602001600020600082815260200190815260200160002060009054906101000a900460ff161561083a576040517f08c379a0000000000000000000000000000000000000000000000000000000008152600401610831906133ef565b60405180910390fd5b6001600b60003373ffffffffffffffffffffffffffffffffffffffff1673ffffffffffffffffffffffffffffffffffffffff168152602001908152602001600020600083815260200190815260200160002060006101000a81548160ff0219169083151502179055506001600a82815481106108b9576108b861340f565b5b906000526020600020906009020160070160008282546108d9919061343e565b9250508190555050565b6060600380546108f2906134c3565b80601f016020809104026020016040519081016040528092919081815260200182805461091e906134c3565b801561096b5780601f106109405761010080835404028352916020019161096b565b820191906000526020600020905b81548152906001019060200180831161094e57829003601f168201915b5050505050905090565b600080610980611cbc565b905061098d818585611cc4565b600191505092915050565b6109a06110a8565b600a6109ac9190613226565b60016109b89190613271565b6109c1336113ab565b1015610a02576040517f08c379a00000000000000000000000000000000000000000000000000000000081526004016109f990613317565b60405180910390fd5b600a805490508110610a49576040517f08c379a0000000000000000000000000000000000000000000000000000000008152600401610a4090613383565b60405180910390fd5b6000600a8281548110610a5f57610a5e61340f565b5b90600052602060002090600902016040518061012001604052908160008201548152602001600182018054610a93906134c3565b80601f0160208091040260200160405190810160405280929190818152602001828054610abf906134c3565b8015610b0c5780601f10610ae157610100808354040283529160200191610b0c565b820191906000526020600020905b815481529060010190602001808311610aef57829003601f168201915b50505050508152602001600282018054610b25906134c3565b80601f0160208091040260200160405190810160405280929190818152602001828054610b51906134c3565b8015610b9e5780601f10610b7357610100808354040283529160200191610b9e565b820191906000526020600020905b815481529060010190602001808311610b8157829003601f168201915b50505050508152602001600382018054610bb7906134c3565b80601f0160208091040260200160405190810160405280929190818152602001828054610be3906134c3565b8015610c305780601f10610c0557610100808354040283529160200191610c30565b820191906000526020600020905b815481529060010190602001808311610c1357829003601f168201915b50505050508152602001600482015481526020016005820160009054906101000a900473ffffffffffffffffffffffffffffffffffffffff1673ffffffffffffffffffffffffffffffffffffffff1673ffffffffffffffffffffffffffffffffffffffff16815260200160068201548152602001600782015481526020016008820160009054906101000a900460ff1615151515815250509050600654600160646009548460e00151610ce39190613524565b610ced9190613271565b610cf7919061343e565b11610d37576040517f08c379a0000000000000000000000000000000000000000000000000000000008152600401610d2e906135a1565b60405180910390fd5b80610100015115610d7d576040517f08c379a0000000000000000000000000000000000000000000000000000000008152600401610d749061360d565b60405180910390fd5b6040518060400160405280600881526020017f7472616e73666572000000000000000000000000000000000000000000000000815250805190602001208160600151805190602001201415610ea35760008160a0015173ffffffffffffffffffffffffffffffffffffffff168260800151604051610dfa9061365e565b60006040518083038185875af1925050503d8060008114610e37576040519150601f19603f3d011682016040523d82523d6000602084013e610e3c565b606091505b5050905080610e80576040517f08c379a0000000000000000000000000000000000000000000000000000000008152600401610e77906136bf565b60405180910390fd5b816080015160086000828254610e9691906136df565b9250508190555050611027565b6040518060400160405280600381526020017f6164640000000000000000000000000000000000000000000000000000000000815250805190602001208160600151805190602001201415610f0457610eff8160a00151611e8f565b611026565b6040518060400160405280600681526020017f72656d6f76650000000000000000000000000000000000000000000000000000815250805190602001208160600151805190602001201415610f6557610f608160a00151611f25565b611025565b6040518060400160405280600881526020017f766f746554696d65000000000000000000000000000000000000000000000000815250805190602001208160600151805190602001201415610fc657610fc18160800151611fba565b611024565b6040518060400160405280600681526020017f71756f72756d0000000000000000000000000000000000000000000000000000815250805190602001208160600151805190602001201415611023576110228160800151611fc4565b5b5b5b5b5b6001600a838154811061103d5761103c61340f565b5b906000526020600020906009020160080160006101000a81548160ff0219169083151502179055505050565b60065481565b6000600254905090565b600080611084611cbc565b9050611091858285611fce565b61109c85858561205a565b60019150509392505050565b60006012905090565b6000806110bc611cbc565b90506110dd8185856110ce8589611baf565b6110d8919061343e565b611cc4565b600191505092915050565b6110f96110f3611cbc565b826122d2565b50565b6060600a805480602002602001604051908101604052809291908181526020016000905b828210156113a25783829060005260206000209060090201604051806101200160405290816000820154815260200160018201805461115e906134c3565b80601f016020809104026020016040519081016040528092919081815260200182805461118a906134c3565b80156111d75780601f106111ac576101008083540402835291602001916111d7565b820191906000526020600020905b8154815290600101906020018083116111ba57829003601f168201915b505050505081526020016002820180546111f0906134c3565b80601f016020809104026020016040519081016040528092919081815260200182805461121c906134c3565b80156112695780601f1061123e57610100808354040283529160200191611269565b820191906000526020600020905b81548152906001019060200180831161124c57829003601f168201915b50505050508152602001600382018054611282906134c3565b80601f01602080910402602001604051908101604052809291908181526020018280546112ae906134c3565b80156112fb5780601f106112d0576101008083540402835291602001916112fb565b820191906000526020600020905b8154815290600101906020018083116112de57829003601f168201915b50505050508152602001600482015481526020016005820160009054906101000a900473ffffffffffffffffffffffffffffffffffffffff1673ffffffffffffffffffffffffffffffffffffffff1673ffffffffffffffffffffffffffffffffffffffff16815260200160068201548152602001600782015481526020016008820160009054906101000a900460ff16151515158152505081526020019060010190611120565b50505050905090565b60008060008373ffffffffffffffffffffffffffffffffffffffff1673ffffffffffffffffffffffffffffffffffffffff168152602001908152602001600020549050919050565b6113fb6124a0565b611405600061251e565b565b61140f6110a8565b600a61141b9190613226565b60016114279190613271565b611430336113ab565b1015611471576040517f08c379a000000000000000000000000000000000000000000000000000000000815260040161146890613317565b60405180910390fd5b816008544761148091906136df565b10156114c1576040517f08c379a00000000000000000000000000000000000000000000000000000000081526004016114b89061375f565b60405180910390fd5b600a604051806101200160405280600a8054905081526020018781526020018681526020018581526020018481526020018373ffffffffffffffffffffffffffffffffffffffff1681526020016007544261151c919061343e565b81526020016000815260200160001515815250908060018154018082558091505060019003906000526020600020906009020160009091909190915060008201518160000155602082015181600101908051906020019061157e929190612745565b50604082015181600201908051906020019061159b929190612745565b5060608201518160030190805190602001906115b8929190612745565b506080820151816004015560a08201518160050160006101000a81548173ffffffffffffffffffffffffffffffffffffffff021916908373ffffffffffffffffffffffffffffffffffffffff16021790555060c0820151816006015560e082015181600701556101008201518160080160006101000a81548160ff02191690831515021790555050508160086000828254611653919061343e565b925050819055505050505050565b60095481565b61167982611673611cbc565b83611fce565b61168382826122d2565b5050565b60006008544761169791906136df565b905090565b6000600560009054906101000a900473ffffffffffffffffffffffffffffffffffffffff16905090565b6060600480546116d5906134c3565b80601f0160208091040260200160405190810160405280929190818152602001828054611701906134c3565b801561174e5780601f106117235761010080835404028352916020019161174e565b820191906000526020600020905b81548152906001019060200180831161173157829003601f168201915b5050505050905090565b60006117626110a8565b600a61176e9190613226565b600161177a9190613271565b611783836113ab565b10159050919050565b600080611797611cbc565b905060006117a58286611baf565b9050838110156117ea576040517f08c379a00000000000000000000000000000000000000000000000000000000081526004016117e1906137f1565b60405180910390fd5b6117f78286868403611cc4565b60019250505092915050565b60008061180e611cbc565b905061181b81858561205a565b600191505092915050565b60075481565b6118346127cb565b600a82815481106118485761184761340f565b5b9060005260206000209060090201604051806101200160405290816000820154815260200160018201805461187c906134c3565b80601f01602080910402602001604051908101604052809291908181526020018280546118a8906134c3565b80156118f55780601f106118ca576101008083540402835291602001916118f5565b820191906000526020600020905b8154815290600101906020018083116118d857829003601f168201915b5050505050815260200160028201805461190e906134c3565b80601f016020809104026020016040519081016040528092919081815260200182805461193a906134c3565b80156119875780601f1061195c57610100808354040283529160200191611987565b820191906000526020600020905b81548152906001019060200180831161196a57829003601f168201915b505050505081526020016003820180546119a0906134c3565b80601f01602080910402602001604051908101604052809291908181526020018280546119cc906134c3565b8015611a195780601f106119ee57610100808354040283529160200191611a19565b820191906000526020600020905b8154815290600101906020018083116119fc57829003601f168201915b50505050508152602001600482015481526020016005820160009054906101000a900473ffffffffffffffffffffffffffffffffffffffff1673ffffffffffffffffffffffffffffffffffffffff1673ffffffffffffffffffffffffffffffffffffffff16815260200160068201548152602001600782015481526020016008820160009054906101000a900460ff1615151515815250509050919050565b6000611ac383611758565b611b02576040517f08c379a0000000000000000000000000000000000000000000000000000000008152600401611af99061385d565b60405180910390fd5b600a805490508210611b49576040517f08c379a0000000000000000000000000000000000000000000000000000000008152600401611b40906138c9565b60405180910390fd5b600b60008473ffffffffffffffffffffffffffffffffffffffff1673ffffffffffffffffffffffffffffffffffffffff168152602001908152602001600020600083815260200190815260200160002060009054906101000a900460ff16905092915050565b6000600160008473ffffffffffffffffffffffffffffffffffffffff1673ffffffffffffffffffffffffffffffffffffffff16815260200190815260200160002060008373ffffffffffffffffffffffffffffffffffffffff1673ffffffffffffffffffffffffffffffffffffffff16815260200190815260200160002054905092915050565b565b611c406124a0565b600073ffffffffffffffffffffffffffffffffffffffff168173ffffffffffffffffffffffffffffffffffffffff161415611cb0576040517f08c379a0000000000000000000000000000000000000000000000000000000008152600401611ca79061395b565b60405180910390fd5b611cb98161251e565b50565b600033905090565b600073ffffffffffffffffffffffffffffffffffffffff168373ffffffffffffffffffffffffffffffffffffffff161415611d34576040517f08c379a0000000000000000000000000000000000000000000000000000000008152600401611d2b906139ed565b60405180910390fd5b600073ffffffffffffffffffffffffffffffffffffffff168273ffffffffffffffffffffffffffffffffffffffff161415611da4576040517f08c379a0000000000000000000000000000000000000000000000000000000008152600401611d9b90613a7f565b60405180910390fd5b80600160008573ffffffffffffffffffffffffffffffffffffffff1673ffffffffffffffffffffffffffffffffffffffff16815260200190815260200160002060008473ffffffffffffffffffffffffffffffffffffffff1673ffffffffffffffffffffffffffffffffffffffff168152602001908152602001600020819055508173ffffffffffffffffffffffffffffffffffffffff168373ffffffffffffffffffffffffffffffffffffffff167f8c5be1e5ebec7d5bd14f71427d1e84f3dd0314c0f7b2291e5b200ac8c7c3b92583604051611e829190612a61565b60405180910390a3505050565b60011515611e9c82611758565b15151415611edf576040517f08c379a0000000000000000000000000000000000000000000000000000000008152600401611ed690613aeb565b60405180910390fd5b611f0881611eeb6110a8565b600a611ef79190613226565b6001611f039190613271565b6125e4565b600160096000828254611f1b919061343e565b9250508190555050565b60011515611f3282611758565b151514611f74576040517f08c379a0000000000000000000000000000000000000000000000000000000008152600401611f6b90613b57565b60405180910390fd5b611f9d81611f806110a8565b600a611f8c9190613226565b6001611f989190613271565b6122d2565b600160096000828254611fb091906136df565b9250508190555050565b8060078190555050565b8060068190555050565b6000611fda8484611baf565b90507fffffffffffffffffffffffffffffffffffffffffffffffffffffffffffffffff81146120545781811015612046576040517f08c379a000000000000000000000000000000000000000000000000000000000815260040161203d90613bc3565b60405180910390fd5b6120538484848403611cc4565b5b50505050565b600073ffffffffffffffffffffffffffffffffffffffff168373ffffffffffffffffffffffffffffffffffffffff1614156120ca576040517f08c379a00000000000000000000000000000000000000000000000000000000081526004016120c190613c55565b60405180910390fd5b600073ffffffffffffffffffffffffffffffffffffffff168273ffffffffffffffffffffffffffffffffffffffff16141561213a576040517f08c379a000000000000000000000000000000000000000000000000000000000815260040161213190613ce7565b60405180910390fd5b61214583838361273b565b60008060008573ffffffffffffffffffffffffffffffffffffffff1673ffffffffffffffffffffffffffffffffffffffff168152602001908152602001600020549050818110156121cb576040517f08c379a00000000000000000000000000000000000000000000000000000000081526004016121c290613d79565b60405180910390fd5b8181036000808673ffffffffffffffffffffffffffffffffffffffff1673ffffffffffffffffffffffffffffffffffffffff16815260200190815260200160002081905550816000808573ffffffffffffffffffffffffffffffffffffffff1673ffffffffffffffffffffffffffffffffffffffff168152602001908152602001600020600082825401925050819055508273ffffffffffffffffffffffffffffffffffffffff168473ffffffffffffffffffffffffffffffffffffffff167fddf252ad1be2c89b69c2b068fc378daa952ba7f163c4a11628f55a4df523b3ef846040516122b99190612a61565b60405180910390a36122cc848484612740565b50505050565b600073ffffffffffffffffffffffffffffffffffffffff168273ffffffffffffffffffffffffffffffffffffffff161415612342576040517f08c379a000000000000000000000000000000000000000000000000000000000815260040161233990613e0b565b60405180910390fd5b61234e8260008361273b565b60008060008473ffffffffffffffffffffffffffffffffffffffff1673ffffffffffffffffffffffffffffffffffffffff168152602001908152602001600020549050818110156123d4576040517f08c379a00000000000000000000000000000000000000000000000000000000081526004016123cb90613e9d565b60405180910390fd5b8181036000808573ffffffffffffffffffffffffffffffffffffffff1673ffffffffffffffffffffffffffffffffffffffff1681526020019081526020016000208190555081600260008282540392505081905550600073ffffffffffffffffffffffffffffffffffffffff168373ffffffffffffffffffffffffffffffffffffffff167fddf252ad1be2c89b69c2b068fc378daa952ba7f163c4a11628f55a4df523b3ef846040516124879190612a61565b60405180910390a361249b83600084612740565b505050565b6124a8611cbc565b73ffffffffffffffffffffffffffffffffffffffff166124c661169c565b73ffffffffffffffffffffffffffffffffffffffff161461251c576040517f08c379a000000000000000000000000000000000000000000000000000000000815260040161251390613f09565b60405180910390fd5b565b6000600560009054906101000a900473ffffffffffffffffffffffffffffffffffffffff16905081600560006101000a81548173ffffffffffffffffffffffffffffffffffffffff021916908373ffffffffffffffffffffffffffffffffffffffff1602179055508173ffffffffffffffffffffffffffffffffffffffff168173ffffffffffffffffffffffffffffffffffffffff167f8be0079c531659141344cd1fd0a4f28419497f9722a3daafe3b4186f6b6457e060405160405180910390a35050565b600073ffffffffffffffffffffffffffffffffffffffff168273ffffffffffffffffffffffffffffffffffffffff161415612654576040517f08c379a000000000000000000000000000000000000000000000000000000000815260040161264b90613f75565b60405180910390fd5b6126606000838361273b565b8060026000828254612672919061343e565b92505081905550806000808473ffffffffffffffffffffffffffffffffffffffff1673ffffffffffffffffffffffffffffffffffffffff168152602001908152602001600020600082825401925050819055508173ffffffffffffffffffffffffffffffffffffffff16600073ffffffffffffffffffffffffffffffffffffffff167fddf252ad1be2c89b69c2b068fc378daa952ba7f163c4a11628f55a4df523b3ef836040516127239190612a61565b60405180910390a361273760008383612740565b5050565b505050565b505050565b828054612751906134c3565b90600052602060002090601f01602090048101928261277357600085556127ba565b82601f1061278c57805160ff19168380011785556127ba565b828001600101855582156127ba579182015b828111156127b957825182559160200191906001019061279e565b5b5090506127c7919061282f565b5090565b6040518061012001604052806000815260200160608152602001606081526020016060815260200160008152602001600073ffffffffffffffffffffffffffffffffffffffff16815260200160008152602001600081526020016000151581525090565b5b80821115612848576000816000905550600101612830565b5090565b6000604051905090565b600080fd5b600080fd5b6000819050919050565b61287381612860565b811461287e57600080fd5b50565b6000813590506128908161286a565b92915050565b6000602082840312156128ac576128ab612856565b5b60006128ba84828501612881565b91505092915050565b600081519050919050565b600082825260208201905092915050565b60005b838110156128fd5780820151818401526020810190506128e2565b8381111561290c576000848401525b50505050565b6000601f19601f8301169050919050565b600061292e826128c3565b61293881856128ce565b93506129488185602086016128df565b61295181612912565b840191505092915050565b600060208201905081810360008301526129768184612923565b905092915050565b600073ffffffffffffffffffffffffffffffffffffffff82169050919050565b60006129a98261297e565b9050919050565b6129b98161299e565b81146129c457600080fd5b50565b6000813590506129d6816129b0565b92915050565b600080604083850312156129f3576129f2612856565b5b6000612a01858286016129c7565b9250506020612a1285828601612881565b9150509250929050565b60008115159050919050565b612a3181612a1c565b82525050565b6000602082019050612a4c6000830184612a28565b92915050565b612a5b81612860565b82525050565b6000602082019050612a766000830184612a52565b92915050565b600080600060608486031215612a9557612a94612856565b5b6000612aa3868287016129c7565b9350506020612ab4868287016129c7565b9250506040612ac586828701612881565b9150509250925092565b600060ff82169050919050565b612ae581612acf565b82525050565b6000602082019050612b006000830184612adc565b92915050565b600081519050919050565b600082825260208201905092915050565b6000819050602082019050919050565b612b3b81612860565b82525050565b600082825260208201905092915050565b6000612b5d826128c3565b612b678185612b41565b9350612b778185602086016128df565b612b8081612912565b840191505092915050565b612b948161299e565b82525050565b612ba381612a1c565b82525050565b600061012083016000830151612bc26000860182612b32565b5060208301518482036020860152612bda8282612b52565b91505060408301518482036040860152612bf48282612b52565b91505060608301518482036060860152612c0e8282612b52565b9150506080830151612c236080860182612b32565b5060a0830151612c3660a0860182612b8b565b5060c0830151612c4960c0860182612b32565b5060e0830151612c5c60e0860182612b32565b50610100830151612c71610100860182612b9a565b508091505092915050565b6000612c888383612ba9565b905092915050565b6000602082019050919050565b6000612ca882612b06565b612cb28185612b11565b935083602082028501612cc485612b22565b8060005b85811015612d005784840389528151612ce18582612c7c565b9450612cec83612c90565b925060208a01995050600181019050612cc8565b50829750879550505050505092915050565b60006020820190508181036000830152612d2c8184612c9d565b905092915050565b600060208284031215612d4a57612d49612856565b5b6000612d58848285016129c7565b91505092915050565b600080fd5b600080fd5b7f4e487b7100000000000000000000000000000000000000000000000000000000600052604160045260246000fd5b612da382612912565b810181811067ffffffffffffffff82111715612dc257612dc1612d6b565b5b80604052505050565b6000612dd561284c565b9050612de18282612d9a565b919050565b600067ffffffffffffffff821115612e0157612e00612d6b565b5b612e0a82612912565b9050602081019050919050565b82818337600083830152505050565b6000612e39612e3484612de6565b612dcb565b905082815260208101848484011115612e5557612e54612d66565b5b612e60848285612e17565b509392505050565b600082601f830112612e7d57612e7c612d61565b5b8135612e8d848260208601612e26565b91505092915050565b600080600080600060a08688031215612eb257612eb1612856565b5b600086013567ffffffffffffffff811115612ed057612ecf61285b565b5b612edc88828901612e68565b955050602086013567ffffffffffffffff811115612efd57612efc61285b565b5b612f0988828901612e68565b945050604086013567ffffffffffffffff811115612f2a57612f2961285b565b5b612f3688828901612e68565b9350506060612f4788828901612881565b9250506080612f58888289016129c7565b9150509295509295909350565b612f6e8161299e565b82525050565b6000602082019050612f896000830184612f65565b92915050565b600061012083016000830151612fa86000860182612b32565b5060208301518482036020860152612fc08282612b52565b91505060408301518482036040860152612fda8282612b52565b91505060608301518482036060860152612ff48282612b52565b91505060808301516130096080860182612b32565b5060a083015161301c60a0860182612b8b565b5060c083015161302f60c0860182612b32565b5060e083015161304260e0860182612b32565b50610100830151613057610100860182612b9a565b508091505092915050565b6000602082019050818103600083015261307c8184612f8f565b905092915050565b6000806040838503121561309b5761309a612856565b5b60006130a9858286016129c7565b92505060206130ba858286016129c7565b9150509250929050565b7f4e487b7100000000000000000000000000000000000000000000000000000000600052601160045260246000fd5b60008160011c9050919050565b6000808291508390505b600185111561314a57808604811115613126576131256130c4565b5b60018516156131355780820291505b8081029050613143856130f3565b945061310a565b94509492505050565b600082613163576001905061321f565b81613171576000905061321f565b81600181146131875760028114613191576131c0565b600191505061321f565b60ff8411156131a3576131a26130c4565b5b8360020a9150848211156131ba576131b96130c4565b5b5061321f565b5060208310610133831016604e8410600b84101617156131f55782820a9050838111156131f0576131ef6130c4565b5b61321f565b6132028484846001613100565b92509050818404811115613219576132186130c4565b5b81810290505b9392505050565b600061323182612860565b915061323c83612acf565b92506132697fffffffffffffffffffffffffffffffffffffffffffffffffffffffffffffffff8484613153565b905092915050565b600061327c82612860565b915061328783612860565b9250817fffffffffffffffffffffffffffffffffffffffffffffffffffffffffffffffff04831182151516156132c0576132bf6130c4565b5b828202905092915050565b7f44414f3a206e6f742061206d656d626572210000000000000000000000000000600082015250565b60006133016012836128ce565b915061330c826132cb565b602082019050919050565b60006020820190508181036000830152613330816132f4565b9050919050565b7f44414f3a20696e76616c69642070726f706f73616c2069642100000000000000600082015250565b600061336d6019836128ce565b915061337882613337565b602082019050919050565b6000602082019050818103600083015261339c81613360565b9050919050565b7f44414f3a20596f7527766520616c726561647920766f74656421000000000000600082015250565b60006133d9601a836128ce565b91506133e4826133a3565b602082019050919050565b60006020820190508181036000830152613408816133cc565b9050919050565b7f4e487b7100000000000000000000000000000000000000000000000000000000600052603260045260246000fd5b600061344982612860565b915061345483612860565b9250827fffffffffffffffffffffffffffffffffffffffffffffffffffffffffffffffff03821115613489576134886130c4565b5b828201905092915050565b7f4e487b7100000000000000000000000000000000000000000000000000000000600052602260045260246000fd5b600060028204905060018216806134db57607f821691505b602082108114156134ef576134ee613494565b5b50919050565b7f4e487b7100000000000000000000000000000000000000000000000000000000600052601260045260246000fd5b600061352f82612860565b915061353a83612860565b92508261354a576135496134f5565b5b828204905092915050565b7f44414f3a2071756f72756d20686173206e6f74206265656e206d657421000000600082015250565b600061358b601d836128ce565b915061359682613555565b602082019050919050565b600060208201905081810360008301526135ba8161357e565b9050919050565b7f44414f3a2070726f706f73616c20616c72656164792065786563757465642100600082015250565b60006135f7601f836128ce565b9150613602826135c1565b602082019050919050565b60006020820190508181036000830152613626816135ea565b9050919050565b600081905092915050565b50565b600061364860008361362d565b915061365382613638565b600082019050919050565b60006136698261363b565b9150819050919050565b7f44414f3a207472616e73666572206661696c6564210000000000000000000000600082015250565b60006136a96015836128ce565b91506136b482613673565b602082019050919050565b600060208201905081810360008301526136d88161369c565b9050919050565b60006136ea82612860565b91506136f583612860565b925082821015613708576137076130c4565b5b828203905092915050565b7f44414f3a20696e73756666696369656e742062616c616e636521000000000000600082015250565b6000613749601a836128ce565b915061375482613713565b602082019050919050565b600060208201905081810360008301526137788161373c565b9050919050565b7f45524332303a2064656372656173656420616c6c6f77616e63652062656c6f7760008201527f207a65726f000000000000000000000000000000000000000000000000000000602082015250565b60006137db6025836128ce565b91506137e68261377f565b604082019050919050565b6000602082019050818103600083015261380a816137ce565b9050919050565b7f44414f3a2075736572206973206e6f742061206d656d62657200000000000000600082015250565b60006138476019836128ce565b915061385282613811565b602082019050919050565b600060208201905081810360008301526138768161383a565b9050919050565b7f496e76616c69642070726f706f73616c20696400000000000000000000000000600082015250565b60006138b36013836128ce565b91506138be8261387d565b602082019050919050565b600060208201905081810360008301526138e2816138a6565b9050919050565b7f4f776e61626c653a206e6577206f776e657220697320746865207a65726f206160008201527f6464726573730000000000000000000000000000000000000000000000000000602082015250565b60006139456026836128ce565b9150613950826138e9565b604082019050919050565b6000602082019050818103600083015261397481613938565b9050919050565b7f45524332303a20617070726f76652066726f6d20746865207a65726f2061646460008201527f7265737300000000000000000000000000000000000000000000000000000000602082015250565b60006139d76024836128ce565b91506139e28261397b565b604082019050919050565b60006020820190508181036000830152613a06816139ca565b9050919050565b7f45524332303a20617070726f766520746f20746865207a65726f20616464726560008201527f7373000000000000000000000000000000000000000000000000000000000000602082015250565b6000613a696022836128ce565b9150613a7482613a0d565b604082019050919050565b60006020820190508181036000830152613a9881613a5c565b9050919050565b7f44414f3a205573657220697320616c72656164792061206d656d626572000000600082015250565b6000613ad5601d836128ce565b9150613ae082613a9f565b602082019050919050565b60006020820190508181036000830152613b0481613ac8565b9050919050565b7f44414f3a2055736572206973206e6f742061206d656d62657200000000000000600082015250565b6000613b416019836128ce565b9150613b4c82613b0b565b602082019050919050565b60006020820190508181036000830152613b7081613b34565b9050919050565b7f45524332303a20696e73756666696369656e7420616c6c6f77616e6365000000600082015250565b6000613bad601d836128ce565b9150613bb882613b77565b602082019050919050565b60006020820190508181036000830152613bdc81613ba0565b9050919050565b7f45524332303a207472616e736665722066726f6d20746865207a65726f20616460008201527f6472657373000000000000000000000000000000000000000000000000000000602082015250565b6000613c3f6025836128ce565b9150613c4a82613be3565b604082019050919050565b60006020820190508181036000830152613c6e81613c32565b9050919050565b7f45524332303a207472616e7366657220746f20746865207a65726f206164647260008201527f6573730000000000000000000000000000000000000000000000000000000000602082015250565b6000613cd16023836128ce565b9150613cdc82613c75565b604082019050919050565b60006020820190508181036000830152613d0081613cc4565b9050919050565b7f45524332303a207472616e7366657220616d6f756e742065786365656473206260008201527f616c616e63650000000000000000000000000000000000000000000000000000602082015250565b6000613d636026836128ce565b9150613d6e82613d07565b604082019050919050565b60006020820190508181036000830152613d9281613d56565b9050919050565b7f45524332303a206275726e2066726f6d20746865207a65726f2061646472657360008201527f7300000000000000000000000000000000000000000000000000000000000000602082015250565b6000613df56021836128ce565b9150613e0082613d99565b604082019050919050565b60006020820190508181036000830152613e2481613de8565b9050919050565b7f45524332303a206275726e20616d6f756e7420657863656564732062616c616e60008201527f6365000000000000000000000000000000000000000000000000000000000000602082015250565b6000613e876022836128ce565b9150613e9282613e2b565b604082019050919050565b60006020820190508181036000830152613eb681613e7a565b9050919050565b7f4f776e61626c653a2063616c6c6572206973206e6f7420746865206f776e6572600082015250565b6000613ef36020836128ce565b9150613efe82613ebd565b602082019050919050565b60006020820190508181036000830152613f2281613ee6565b9050919050565b7f45524332303a206d696e7420746f20746865207a65726f206164647265737300600082015250565b6000613f5f601f836128ce565b9150613f6a82613f29565b602082019050919050565b60006020820190508181036000830152613f8e81613f52565b905091905056fea2646970667358221220fff18f3401d3f2ad3f5e62e682d1f850bb7839c7d533b9b3a88bc0994212b32a64736f6c63430008090033a26469706673582212200fc1b2e1863d5fc6273af20eeac24f0fffdfbf648e84b92db4910c6677aa704464736f6c63430008090033",
  "linkReferences": {},
  "deployedLinkReferences": {}
}